{
  "abi": [
    {
      "inputs": [
        {
          "internalType": "string",
          "name": "_name",
          "type": "string"
        },
        {
          "internalType": "string",
          "name": "_symbol",
          "type": "string"
        }
      ],
      "stateMutability": "nonpayable",
      "type": "constructor"
    },
    {
      "anonymous": false,
      "inputs": [
        {
          "indexed": true,
          "internalType": "address",
          "name": "owner",
          "type": "address"
        },
        {
          "indexed": true,
          "internalType": "address",
          "name": "spender",
          "type": "address"
        },
        {
          "indexed": false,
          "internalType": "uint256",
          "name": "value",
          "type": "uint256"
        }
      ],
      "name": "Approval",
      "type": "event"
    },
    {
      "anonymous": false,
      "inputs": [
        {
          "indexed": true,
          "internalType": "address",
          "name": "previousOwner",
          "type": "address"
        },
        {
          "indexed": true,
          "internalType": "address",
          "name": "newOwner",
          "type": "address"
        }
      ],
      "name": "OwnershipTransferred",
      "type": "event"
    },
    {
      "anonymous": false,
      "inputs": [
        {
          "indexed": true,
          "internalType": "address",
          "name": "from",
          "type": "address"
        },
        {
          "indexed": true,
          "internalType": "address",
          "name": "to",
          "type": "address"
        },
        {
          "indexed": false,
          "internalType": "uint256",
          "name": "value",
          "type": "uint256"
        }
      ],
      "name": "Transfer",
      "type": "event"
    },
    {
      "inputs": [
        {
          "internalType": "address",
          "name": "owner",
          "type": "address"
        },
        {
          "internalType": "address",
          "name": "spender",
          "type": "address"
        }
      ],
      "name": "allowance",
      "outputs": [
        {
          "internalType": "uint256",
          "name": "",
          "type": "uint256"
        }
      ],
      "stateMutability": "view",
      "type": "function"
    },
    {
      "inputs": [
        {
          "internalType": "address",
          "name": "spender",
          "type": "address"
        },
        {
          "internalType": "uint256",
          "name": "amount",
          "type": "uint256"
        }
      ],
      "name": "approve",
      "outputs": [
        {
          "internalType": "bool",
          "name": "",
          "type": "bool"
        }
      ],
      "stateMutability": "nonpayable",
      "type": "function"
    },
    {
      "inputs": [
        {
          "internalType": "address",
          "name": "account",
          "type": "address"
        }
      ],
      "name": "balanceOf",
      "outputs": [
        {
          "internalType": "uint256",
          "name": "",
          "type": "uint256"
        }
      ],
      "stateMutability": "view",
      "type": "function"
    },
    {
      "inputs": [
        {
          "internalType": "uint256",
          "name": "_amount",
          "type": "uint256"
        }
      ],
      "name": "burn",
      "outputs": [
        {
          "internalType": "bool",
          "name": "",
          "type": "bool"
        }
      ],
      "stateMutability": "nonpayable",
      "type": "function"
    },
    {
      "inputs": [],
      "name": "decimals",
      "outputs": [
        {
          "internalType": "uint8",
          "name": "",
          "type": "uint8"
        }
      ],
      "stateMutability": "view",
      "type": "function"
    },
    {
      "inputs": [
        {
          "internalType": "address",
          "name": "spender",
          "type": "address"
        },
        {
          "internalType": "uint256",
          "name": "subtractedValue",
          "type": "uint256"
        }
      ],
      "name": "decreaseAllowance",
      "outputs": [
        {
          "internalType": "bool",
          "name": "",
          "type": "bool"
        }
      ],
      "stateMutability": "nonpayable",
      "type": "function"
    },
    {
      "inputs": [
        {
          "internalType": "address",
          "name": "spender",
          "type": "address"
        },
        {
          "internalType": "uint256",
          "name": "addedValue",
          "type": "uint256"
        }
      ],
      "name": "increaseAllowance",
      "outputs": [
        {
          "internalType": "bool",
          "name": "",
          "type": "bool"
        }
      ],
      "stateMutability": "nonpayable",
      "type": "function"
    },
    {
      "inputs": [],
      "name": "maxSupply",
      "outputs": [
        {
          "internalType": "uint224",
          "name": "",
          "type": "uint224"
        }
      ],
      "stateMutability": "view",
      "type": "function"
    },
    {
      "inputs": [
        {
          "internalType": "uint256",
          "name": "_amount",
          "type": "uint256"
        }
      ],
      "name": "mint",
      "outputs": [
        {
          "internalType": "bool",
          "name": "",
          "type": "bool"
        }
      ],
      "stateMutability": "nonpayable",
      "type": "function"
    },
    {
      "inputs": [
        {
          "internalType": "address",
          "name": "_recipient",
          "type": "address"
        },
        {
          "internalType": "uint256",
          "name": "_amount",
          "type": "uint256"
        }
      ],
      "name": "mintTo",
      "outputs": [
        {
          "internalType": "bool",
          "name": "",
          "type": "bool"
        }
      ],
      "stateMutability": "nonpayable",
      "type": "function"
    },
    {
      "inputs": [],
      "name": "name",
      "outputs": [
        {
          "internalType": "string",
          "name": "",
          "type": "string"
        }
      ],
      "stateMutability": "view",
      "type": "function"
    },
    {
      "inputs": [],
      "name": "owner",
      "outputs": [
        {
          "internalType": "address",
          "name": "",
          "type": "address"
        }
      ],
      "stateMutability": "view",
      "type": "function"
    },
    {
      "inputs": [],
      "name": "renounceOwnership",
      "outputs": [],
      "stateMutability": "nonpayable",
      "type": "function"
    },
    {
      "inputs": [],
      "name": "symbol",
      "outputs": [
        {
          "internalType": "string",
          "name": "",
          "type": "string"
        }
      ],
      "stateMutability": "view",
      "type": "function"
    },
    {
      "inputs": [],
      "name": "totalSupply",
      "outputs": [
        {
          "internalType": "uint256",
          "name": "",
          "type": "uint256"
        }
      ],
      "stateMutability": "view",
      "type": "function"
    },
    {
      "inputs": [
        {
          "internalType": "address",
          "name": "to",
          "type": "address"
        },
        {
          "internalType": "uint256",
          "name": "amount",
          "type": "uint256"
        }
      ],
      "name": "transfer",
      "outputs": [
        {
          "internalType": "bool",
          "name": "",
          "type": "bool"
        }
      ],
      "stateMutability": "nonpayable",
      "type": "function"
    },
    {
      "inputs": [
        {
          "internalType": "address",
          "name": "from",
          "type": "address"
        },
        {
          "internalType": "address",
          "name": "to",
          "type": "address"
        },
        {
          "internalType": "uint256",
          "name": "amount",
          "type": "uint256"
        }
      ],
      "name": "transferFrom",
      "outputs": [
        {
          "internalType": "bool",
          "name": "",
          "type": "bool"
        }
      ],
      "stateMutability": "nonpayable",
      "type": "function"
    },
    {
      "inputs": [
        {
          "internalType": "address",
          "name": "newOwner",
          "type": "address"
        }
      ],
      "name": "transferOwnership",
      "outputs": [],
      "stateMutability": "nonpayable",
      "type": "function"
    }
  ],
  "bytecode": {
    "object": "0x6080604052600680546001600160e01b0319166b033b2e3c9fd0803ce80000001790553480156200002f57600080fd5b50604051620011af380380620011af83398101604081905262000052916200026f565b8151829082906200006b906003906020850190620000fc565b50805162000081906004906020840190620000fc565b5050506200009e62000098620000a660201b60201c565b620000aa565b505062000315565b3390565b600580546001600160a01b038381166001600160a01b0319831681179093556040519116919082907f8be0079c531659141344cd1fd0a4f28419497f9722a3daafe3b4186f6b6457e090600090a35050565b8280546200010a90620002d9565b90600052602060002090601f0160209004810192826200012e576000855562000179565b82601f106200014957805160ff191683800117855562000179565b8280016001018555821562000179579182015b82811115620001795782518255916020019190600101906200015c565b50620001879291506200018b565b5090565b5b808211156200018757600081556001016200018c565b634e487b7160e01b600052604160045260246000fd5b600082601f830112620001ca57600080fd5b81516001600160401b0380821115620001e757620001e7620001a2565b604051601f8301601f19908116603f01168101908282118183101715620002125762000212620001a2565b816040528381526020925086838588010111156200022f57600080fd5b600091505b8382101562000253578582018301518183018401529082019062000234565b83821115620002655760008385830101525b9695505050505050565b600080604083850312156200028357600080fd5b82516001600160401b03808211156200029b57600080fd5b620002a986838701620001b8565b93506020850151915080821115620002c057600080fd5b50620002cf85828601620001b8565b9150509250929050565b600181811c90821680620002ee57607f821691505b6020821081036200030f57634e487b7160e01b600052602260045260246000fd5b50919050565b610e8a80620003256000396000f3fe608060405234801561001057600080fd5b50600436106101165760003560e01c8063715018a6116100a2578063a457c2d711610071578063a457c2d714610232578063a9059cbb14610245578063d5abeb0114610258578063dd62ed3e14610283578063f2fde38b1461029657600080fd5b8063715018a6146101f25780638da5cb5b146101fc57806395d89b4114610217578063a0712d681461021f57600080fd5b8063313ce567116100e9578063313ce56714610181578063395093511461019057806342966c68146101a3578063449a52f8146101b657806370a08231146101c957600080fd5b806306fdde031461011b578063095ea7b31461013957806318160ddd1461015c57806323b872dd1461016e575b600080fd5b6101236102a9565b6040516101309190610c60565b60405180910390f35b61014c610147366004610ccc565b61033b565b6040519015158152602001610130565b6002545b604051908152602001610130565b61014c61017c366004610cf6565b610353565b60405160128152602001610130565b61014c61019e366004610ccc565b610377565b61014c6101b1366004610d32565b610399565b61014c6101c4366004610ccc565b6103ad565b6101606101d7366004610d4b565b6001600160a01b031660009081526020819052604090205490565b6101fa610451565b005b6005546040516001600160a01b039091168152602001610130565b610123610487565b61014c61022d366004610d32565b610496565b61014c610240366004610ccc565b61052d565b61014c610253366004610ccc565b6105a8565b60065461026b906001600160e01b031681565b6040516001600160e01b039091168152602001610130565b610160610291366004610d6d565b6105b6565b6101fa6102a4366004610d4b565b6105e1565b6060600380546102b890610da0565b80601f01602080910402602001604051908101604052809291908181526020018280546102e490610da0565b80156103315780601f1061030657610100808354040283529160200191610331565b820191906000526020600020905b81548152906001019060200180831161031457829003601f168201915b5050505050905090565b60003361034981858561067c565b5060019392505050565b6000336103618582856107a1565b61036c85858561081b565b506001949350505050565b60003361034981858561038a83836105b6565b6103949190610df0565b61067c565b60006103a533836109e9565b506001919050565b6005546000906001600160a01b031633146103e35760405162461bcd60e51b81526004016103da90610e08565b60405180910390fd5b6103ed8383610b2f565b6006546001600160e01b031661040260025490565b11156104485760405162461bcd60e51b81526020600482015260156024820152744d696e7420657863656564206d6178537570706c7960581b60448201526064016103da565b50600192915050565b6005546001600160a01b0316331461047b5760405162461bcd60e51b81526004016103da90610e08565b6104856000610c0e565b565b6060600480546102b890610da0565b6005546000906001600160a01b031633146104c35760405162461bcd60e51b81526004016103da90610e08565b6104cd3383610b2f565b6006546001600160e01b03166104e260025490565b11156103a55760405162461bcd60e51b81526020600482015260156024820152744d696e7420657863656564206d6178537570706c7960581b60448201526064016103da565b919050565b6000338161053b82866105b6565b90508381101561059b5760405162461bcd60e51b815260206004820152602560248201527f45524332303a2064656372656173656420616c6c6f77616e63652062656c6f77604482015264207a65726f60d81b60648201526084016103da565b61036c828686840361067c565b60003361034981858561081b565b6001600160a01b03918216600090815260016020908152604080832093909416825291909152205490565b6005546001600160a01b0316331461060b5760405162461bcd60e51b81526004016103da90610e08565b6001600160a01b0381166106705760405162461bcd60e51b815260206004820152602660248201527f4f776e61626c653a206e6577206f776e657220697320746865207a65726f206160448201526564647265737360d01b60648201526084016103da565b61067981610c0e565b50565b6001600160a01b0383166106de5760405162461bcd60e51b8152602060048201526024808201527f45524332303a20617070726f76652066726f6d20746865207a65726f206164646044820152637265737360e01b60648201526084016103da565b6001600160a01b03821661073f5760405162461bcd60e51b815260206004820152602260248201527f45524332303a20617070726f766520746f20746865207a65726f206164647265604482015261737360f01b60648201526084016103da565b6001600160a01b0383811660008181526001602090815260408083209487168084529482529182902085905590518481527f8c5be1e5ebec7d5bd14f71427d1e84f3dd0314c0f7b2291e5b200ac8c7c3b92591015b60405180910390a3505050565b60006107ad84846105b6565b9050600019811461081557818110156108085760405162461bcd60e51b815260206004820152601d60248201527f45524332303a20696e73756666696369656e7420616c6c6f77616e636500000060448201526064016103da565b610815848484840361067c565b50505050565b6001600160a01b03831661087f5760405162461bcd60e51b815260206004820152602560248201527f45524332303a207472616e736665722066726f6d20746865207a65726f206164604482015264647265737360d81b60648201526084016103da565b6001600160a01b0382166108e15760405162461bcd60e51b815260206004820152602360248201527f45524332303a207472616e7366657220746f20746865207a65726f206164647260448201526265737360e81b60648201526084016103da565b6001600160a01b038316600090815260208190526040902054818110156109595760405162461bcd60e51b815260206004820152602660248201527f45524332303a207472616e7366657220616d6f756e7420657863656564732062604482015265616c616e636560d01b60648201526084016103da565b6001600160a01b03808516600090815260208190526040808220858503905591851681529081208054849290610990908490610df0565b92505081905550826001600160a01b0316846001600160a01b03167fddf252ad1be2c89b69c2b068fc378daa952ba7f163c4a11628f55a4df523b3ef846040516109dc91815260200190565b60405180910390a3610815565b6001600160a01b038216610a495760405162461bcd60e51b815260206004820152602160248201527f45524332303a206275726e2066726f6d20746865207a65726f206164647265736044820152607360f81b60648201526084016103da565b6001600160a01b03821660009081526020819052604090205481811015610abd5760405162461bcd60e51b815260206004820152602260248201527f45524332303a206275726e20616d6f756e7420657863656564732062616c616e604482015261636560f01b60648201526084016103da565b6001600160a01b0383166000908152602081905260408120838303905560028054849290610aec908490610e3d565b90915550506040518281526000906001600160a01b038516907fddf252ad1be2c89b69c2b068fc378daa952ba7f163c4a11628f55a4df523b3ef90602001610794565b6001600160a01b038216610b855760405162461bcd60e51b815260206004820152601f60248201527f45524332303a206d696e7420746f20746865207a65726f20616464726573730060448201526064016103da565b8060026000828254610b979190610df0565b90915550506001600160a01b03821660009081526020819052604081208054839290610bc4908490610df0565b90915550506040518181526001600160a01b038316906000907fddf252ad1be2c89b69c2b068fc378daa952ba7f163c4a11628f55a4df523b3ef9060200160405180910390a35050565b600580546001600160a01b038381166001600160a01b0319831681179093556040519116919082907f8be0079c531659141344cd1fd0a4f28419497f9722a3daafe3b4186f6b6457e090600090a35050565b600060208083528351808285015260005b81811015610c8d57858101830151858201604001528201610c71565b81811115610c9f576000604083870101525b50601f01601f1916929092016040019392505050565b80356001600160a01b038116811461052857600080fd5b60008060408385031215610cdf57600080fd5b610ce883610cb5565b946020939093013593505050565b600080600060608486031215610d0b57600080fd5b610d1484610cb5565b9250610d2260208501610cb5565b9150604084013590509250925092565b600060208284031215610d4457600080fd5b5035919050565b600060208284031215610d5d57600080fd5b610d6682610cb5565b9392505050565b60008060408385031215610d8057600080fd5b610d8983610cb5565b9150610d9760208401610cb5565b90509250929050565b600181811c90821680610db457607f821691505b602082108103610dd457634e487b7160e01b600052602260045260246000fd5b50919050565b634e487b7160e01b600052601160045260246000fd5b60008219821115610e0357610e03610dda565b500190565b6020808252818101527f4f776e61626c653a2063616c6c6572206973206e6f7420746865206f776e6572604082015260600190565b600082821015610e4f57610e4f610dda565b50039056fea26469706673582212205ecfcdf848b30230fba0a14d5bfb61cfc8817d5d6bcbd3d5c0c5712377577c9164736f6c634300080d0033",
    "linkReferences": {}
  }
}