{
  "abi": [
    {
      "inputs": [
        {
          "internalType": "address[]",
          "name": "_acceptedTokens",
          "type": "address[]"
        },
        {
          "internalType": "uint256[]",
          "name": "_amounts",
          "type": "uint256[]"
        }
      ],
      "stateMutability": "nonpayable",
      "type": "constructor"
    },
    {
      "anonymous": false,
      "inputs": [
        {
          "indexed": false,
          "internalType": "uint256",
          "name": "amount",
          "type": "uint256"
        }
      ],
      "name": "DonationReceived",
      "type": "event"
    },
    {
      "anonymous": false,
      "inputs": [
        {
          "indexed": false,
          "internalType": "uint256",
          "name": "amount",
          "type": "uint256"
        }
      ],
      "name": "EtherWithdrawn",
      "type": "event"
    },
    {
      "anonymous": false,
      "inputs": [
        {
          "indexed": false,
          "internalType": "uint256",
          "name": "timestamp",
          "type": "uint256"
        }
      ],
      "name": "FreeSoftware",
      "type": "event"
    },
    {
      "anonymous": false,
      "inputs": [
        {
          "indexed": false,
          "internalType": "uint256",
          "name": "timestamp",
          "type": "uint256"
        }
      ],
      "name": "NotFreeAnymore",
      "type": "event"
    },
    {
      "anonymous": false,
      "inputs": [
        {
          "indexed": true,
          "internalType": "address",
          "name": "previousOwner",
          "type": "address"
        },
        {
          "indexed": true,
          "internalType": "address",
          "name": "newOwner",
          "type": "address"
        }
      ],
      "name": "OwnershipTransferred",
      "type": "event"
    },
    {
      "anonymous": false,
      "inputs": [
        {
          "indexed": false,
          "internalType": "address",
          "name": "token",
          "type": "address"
        },
        {
          "indexed": false,
          "internalType": "uint256",
          "name": "amount",
          "type": "uint256"
        }
      ],
      "name": "PaymentMethodAdded",
      "type": "event"
    },
    {
      "anonymous": false,
      "inputs": [
        {
          "indexed": false,
          "internalType": "uint256",
          "name": "amount",
          "type": "uint256"
        },
        {
          "indexed": false,
          "internalType": "bytes32",
          "name": "macHash",
          "type": "bytes32"
        }
      ],
      "name": "ReceivedNativePayment",
      "type": "event"
    },
    {
      "anonymous": false,
      "inputs": [
        {
          "indexed": true,
          "internalType": "address",
          "name": "token",
          "type": "address"
        },
        {
          "indexed": false,
          "internalType": "uint256",
          "name": "amount",
          "type": "uint256"
        },
        {
          "indexed": false,
          "internalType": "bytes32",
          "name": "macHash",
          "type": "bytes32"
        }
      ],
      "name": "ReceivedTokenPayment",
      "type": "event"
    },
    {
      "anonymous": false,
      "inputs": [
        {
          "indexed": false,
          "internalType": "address",
          "name": "token",
          "type": "address"
        }
      ],
      "name": "TokenPaymentRemoved",
      "type": "event"
    },
    {
      "anonymous": false,
      "inputs": [
        {
          "indexed": true,
          "internalType": "address",
          "name": "token",
          "type": "address"
        },
        {
          "indexed": false,
          "internalType": "uint256",
          "name": "amount",
          "type": "uint256"
        }
      ],
      "name": "TokenWithdrawn",
      "type": "event"
    },
    {
      "inputs": [
        {
          "internalType": "uint256",
          "name": "",
          "type": "uint256"
        }
      ],
      "name": "acceptedTokens",
      "outputs": [
        {
          "internalType": "address",
          "name": "",
          "type": "address"
        }
      ],
      "stateMutability": "view",
      "type": "function"
    },
    {
      "inputs": [
        {
          "internalType": "address",
          "name": "token",
          "type": "address"
        },
        {
          "internalType": "uint256",
          "name": "amount",
          "type": "uint256"
        }
      ],
      "name": "addPaymentMethod",
      "outputs": [],
      "stateMutability": "nonpayable",
      "type": "function"
    },
    {
      "inputs": [
        {
          "internalType": "address",
          "name": "tokenAddress",
          "type": "address"
        },
        {
          "internalType": "bytes32",
          "name": "macHash",
          "type": "bytes32"
        }
      ],
      "name": "buy",
      "outputs": [],
      "stateMutability": "payable",
      "type": "function"
    },
    {
      "inputs": [
        {
          "internalType": "address",
          "name": "token",
          "type": "address"
        },
        {
          "internalType": "uint256",
          "name": "amount",
          "type": "uint256"
        }
      ],
      "name": "changePaymentAmount",
      "outputs": [],
      "stateMutability": "nonpayable",
      "type": "function"
    },
    {
      "inputs": [],
      "name": "free",
      "outputs": [
        {
          "internalType": "bool",
          "name": "",
          "type": "bool"
        }
      ],
      "stateMutability": "view",
      "type": "function"
    },
    {
      "inputs": [
        {
          "internalType": "bytes32",
          "name": "macHash",
          "type": "bytes32"
        }
      ],
      "name": "getFreeLicense",
      "outputs": [],
      "stateMutability": "nonpayable",
      "type": "function"
    },
    {
      "inputs": [
        {
          "internalType": "bytes32",
          "name": "",
          "type": "bytes32"
        }
      ],
      "name": "hasLicense",
      "outputs": [
        {
          "internalType": "bool",
          "name": "",
          "type": "bool"
        }
      ],
      "stateMutability": "view",
      "type": "function"
    },
    {
      "inputs": [],
      "name": "numAcceptedTokens",
      "outputs": [
        {
          "internalType": "uint256",
          "name": "",
          "type": "uint256"
        }
      ],
      "stateMutability": "view",
      "type": "function"
    },
    {
      "inputs": [],
      "name": "owner",
      "outputs": [
        {
          "internalType": "address",
          "name": "",
          "type": "address"
        }
      ],
      "stateMutability": "view",
      "type": "function"
    },
    {
      "inputs": [
        {
          "internalType": "address",
          "name": "",
          "type": "address"
        }
      ],
      "name": "paymentAmounts",
      "outputs": [
        {
          "internalType": "uint256",
          "name": "",
          "type": "uint256"
        }
      ],
      "stateMutability": "view",
      "type": "function"
    },
    {
      "inputs": [
        {
          "internalType": "address",
          "name": "token",
          "type": "address"
        }
      ],
      "name": "removePaymentMethod",
      "outputs": [],
      "stateMutability": "nonpayable",
      "type": "function"
    },
    {
      "inputs": [],
      "name": "renounceOwnership",
      "outputs": [],
      "stateMutability": "nonpayable",
      "type": "function"
    },
    {
      "inputs": [],
      "name": "setFree",
      "outputs": [],
      "stateMutability": "nonpayable",
      "type": "function"
    },
    {
      "inputs": [],
      "name": "stopFree",
      "outputs": [],
      "stateMutability": "nonpayable",
      "type": "function"
    },
    {
      "inputs": [
        {
          "internalType": "address",
          "name": "newOwner",
          "type": "address"
        }
      ],
      "name": "transferOwnership",
      "outputs": [],
      "stateMutability": "nonpayable",
      "type": "function"
    },
    {
      "inputs": [],
      "name": "withdrawAll",
      "outputs": [],
      "stateMutability": "nonpayable",
      "type": "function"
    },
    {
      "inputs": [
        {
          "internalType": "uint256",
          "name": "amount",
          "type": "uint256"
        }
      ],
      "name": "withdrawNative",
      "outputs": [],
      "stateMutability": "nonpayable",
      "type": "function"
    },
    {
      "inputs": [
        {
          "internalType": "address",
          "name": "tokenAddress",
          "type": "address"
        },
        {
          "internalType": "uint256",
          "name": "amount",
          "type": "uint256"
        }
      ],
      "name": "withdrawToken",
      "outputs": [],
      "stateMutability": "nonpayable",
      "type": "function"
    },
    {
      "stateMutability": "payable",
      "type": "receive"
    }
  ],
  "bytecode": {
    "object": "0x60806040523480156200001157600080fd5b5060405162001c4c38038062001c4c833981016040819052620000349162000413565b6200003f33620002e1565b8051825114620000965760405162461bcd60e51b815260206004820152601460248201527f494e56414c49445f41525241595f4c454e47544800000000000000000000000060448201526064015b60405180910390fd5b60005b8251811015620002d8576000828281518110620000ba57620000ba620004f1565b602002602001015111620001005760405162461bcd60e51b815260206004820152600c60248201526b5041594d454e545f5a45524f60a01b60448201526064016200008d565b60016000848381518110620001195762000119620004f1565b60200260200101516001600160a01b03166001600160a01b0316815260200190815260200160002054600014620001865760405162461bcd60e51b815260206004820152601060248201526f544f4b454e5f4e4f545f554e4951554560801b60448201526064016200008d565b8181815181106200019b576200019b620004f1565b602002602001015160016000858481518110620001bc57620001bc620004f1565b60200260200101516001600160a01b03166001600160a01b03168152602001908152602001600020819055506002838281518110620001ff57620001ff620004f1565b60209081029190910181015182546001810184556000938452919092200180546001600160a01b0319166001600160a01b0390921691909117905582517f5bc661523f0768041441690c8e2ce10e1a45fdd2df34b0f573393410bb79cb1f90849083908110620002735762000273620004f1565b6020026020010151838381518110620002905762000290620004f1565b6020026020010151604051620002bb9291906001600160a01b03929092168252602082015260400190565b60405180910390a180620002cf8162000507565b91505062000099565b5050506200052f565b600080546001600160a01b038381166001600160a01b0319831681178455604051919092169283917f8be0079c531659141344cd1fd0a4f28419497f9722a3daafe3b4186f6b6457e09190a35050565b634e487b7160e01b600052604160045260246000fd5b604051601f8201601f191681016001600160401b038111828210171562000372576200037262000331565b604052919050565b60006001600160401b0382111562000396576200039662000331565b5060051b60200190565b600082601f830112620003b257600080fd5b81516020620003cb620003c5836200037a565b62000347565b82815260059290921b84018101918181019086841115620003eb57600080fd5b8286015b84811015620004085780518352918301918301620003ef565b509695505050505050565b600080604083850312156200042757600080fd5b82516001600160401b03808211156200043f57600080fd5b818501915085601f8301126200045457600080fd5b8151602062000467620003c5836200037a565b82815260059290921b840181019181810190898411156200048757600080fd5b948201945b83861015620004be5785516001600160a01b0381168114620004ae5760008081fd5b825294820194908201906200048c565b91880151919650909350505080821115620004d857600080fd5b50620004e785828601620003a0565b9150509250929050565b634e487b7160e01b600052603260045260246000fd5b6000600182016200052857634e487b7160e01b600052601160045260246000fd5b5060010190565b61170d806200053f6000396000f3fe60806040526004361061010d5760003560e01c806384276d81116100955780639e281a98116100645780639e281a9814610308578063c5442cc914610328578063de6cf0ee14610358578063f2fde38b1461036d578063f885728c1461038d57600080fd5b806384276d81146102a2578063853828b6146102c25780638da5cb5b146102d75780639058e228146102f557600080fd5b8063715018a6116100dc578063715018a6146102015780637462711b146102165780637e4fed3b146102355780638233f0261461026257806383c128591461028257600080fd5b80631370128e1461015357806336c87754146101895780634c158323146101c1578063539270bc146101e157600080fd5b3661014e57341561014c576040513481527f9874a7967abbb8701e946ae29391c091f59962f042ba4b5d99b1ed7f2e2e3e559060200160405180910390a15b005b600080fd5b34801561015f57600080fd5b5060005461017490600160a01b900460ff1681565b60405190151581526020015b60405180910390f35b34801561019557600080fd5b506101a96101a4366004611500565b6103a2565b6040516001600160a01b039091168152602001610180565b3480156101cd57600080fd5b5061014c6101dc366004611500565b6103cc565b3480156101ed57600080fd5b5061014c6101fc366004611535565b6104bc565b34801561020d57600080fd5b5061014c6105da565b34801561022257600080fd5b506002545b604051908152602001610180565b34801561024157600080fd5b5061022761025036600461155f565b60016020526000908152604090205481565b34801561026e57600080fd5b5061014c61027d36600461155f565b610610565b34801561028e57600080fd5b5061014c61029d366004611535565b6107f0565b3480156102ae57600080fd5b5061014c6102bd366004611500565b610920565b3480156102ce57600080fd5b5061014c610a47565b3480156102e357600080fd5b506000546001600160a01b03166101a9565b61014c610303366004611535565b610c55565b34801561031457600080fd5b5061014c610323366004611535565b610e8b565b34801561033457600080fd5b50610174610343366004611500565b60036020526000908152604090205460ff1681565b34801561036457600080fd5b5061014c610fb2565b34801561037957600080fd5b5061014c61038836600461155f565b611074565b34801561039957600080fd5b5061014c61110f565b600281815481106103b257600080fd5b6000918252602090912001546001600160a01b0316905081565b600054600160a01b900460ff166104205760405162461bcd60e51b81526020600482015260136024820152724c4943454e53455f49535f4e4f545f4652454560681b60448201526064015b60405180910390fd5b806104605760405162461bcd60e51b815260206004820152601060248201526f0929cac82989288be9a8286be9082a6960831b6044820152606401610417565b600081815260036020526040808220805460ff19166001179055517f7563f4dad49ece416ba5a1c3aa9b518a14fb1c33d0668211f098572438da8b54916104b1918490918252602082015260400190565b60405180910390a150565b6000546001600160a01b031633146104e65760405162461bcd60e51b81526004016104179061157a565b6001600160a01b038216600090815260016020526040902054156105425760405162461bcd60e51b81526020600482015260136024820152721513d2d15397d053149150511657d051111151606a1b6044820152606401610417565b6001600160a01b03821660008181526001602081815260408084208690556002805493840181559093527f405787fa12a823e0f2b7631cc41b3ba8828b3321ca811111fa75cd3aa3bb5ace90910180546001600160a01b03191684179055815192835282018390527f5bc661523f0768041441690c8e2ce10e1a45fdd2df34b0f573393410bb79cb1f91015b60405180910390a15050565b6000546001600160a01b031633146106045760405162461bcd60e51b81526004016104179061157a565b61060e60006111ba565b565b6000546001600160a01b0316331461063a5760405162461bcd60e51b81526004016104179061157a565b6001600160a01b0381166000908152600160205260409020546106965760405162461bcd60e51b81526020600482015260146024820152731513d2d15397d113d154d7d393d517d1561254d560621b6044820152606401610417565b6001600160a01b0381166000908152600160205260408120819055600254905b818110156107b657826001600160a01b0316600282815481106106db576106db6115af565b6000918252602090912001546001600160a01b0316036107a45760026107026001846115db565b81548110610712576107126115af565b600091825260209091200154600280546001600160a01b03909216918390811061073e5761073e6115af565b9060005260206000200160006101000a8154816001600160a01b0302191690836001600160a01b03160217905550600280548061077d5761077d6115f2565b600082815260209020810160001990810180546001600160a01b03191690550190556107b6565b806107ae81611608565b9150506106b6565b506040516001600160a01b03831681527fb69fc01afbd6b1e981d8dba367e0071a81c8eb2284457a1b28d12ba691c96ebd906020016105ce565b6000546001600160a01b0316331461081a5760405162461bcd60e51b81526004016104179061157a565b600254600090815b8181101561087c57846001600160a01b031660028281548110610847576108476115af565b6000918252602090912001546001600160a01b03160361086a576001925061087c565b8061087481611608565b915050610822565b50816108c15760405162461bcd60e51b81526020600482015260146024820152731513d2d15397d113d154d7d393d517d1561254d560621b6044820152606401610417565b600083116109025760405162461bcd60e51b815260206004820152600e60248201526d1253959053125117d05353d5539560921b6044820152606401610417565b50506001600160a01b03909116600090815260016020526040902055565b6000546001600160a01b0316331461094a5760405162461bcd60e51b81526004016104179061157a565b8047101561098d5760405162461bcd60e51b815260206004820152601060248201526f2727aa2fa2a727aaa3a42fa2aa2422a960811b6044820152606401610417565b604051600090339083908381818185875af1925050503d80600081146109cf576040519150601f19603f3d011682016040523d82523d6000602084013e6109d4565b606091505b5050905080610a175760405162461bcd60e51b815260206004820152600f60248201526e1514905394d1915497d19052531151608a1b6044820152606401610417565b6040518281527f04590a28d5a843588aa29cd0037e47b18e8e1223898c124a04ab7165d68d826f906020016105ce565b6000546001600160a01b03163314610a715760405162461bcd60e51b81526004016104179061157a565b60025460008115610b895760005b82811015610b8757600060028281548110610a9c57610a9c6115af565b6000918252602090912001546040516370a0823160e01b81523060048201526001600160a01b03909116915081906370a0823190602401602060405180830381865afa158015610af0573d6000803e3d6000fd5b505050506040513d601f19601f82011682018060405250810190610b149190611621565b92508215610b7457610b306001600160a01b038216338561120a565b806001600160a01b03167fa2bd9fcfcdba69f52bcd9a520846ad4bd685b187483f53efc42d035b2ddebff084604051610b6b91815260200190565b60405180910390a25b5080610b7f81611608565b915050610a7f565b505b50478015610c5157604051600090339083908381818185875af1925050503d8060008114610bd3576040519150601f19603f3d011682016040523d82523d6000602084013e610bd8565b606091505b5050905080610c1b5760405162461bcd60e51b815260206004820152600f60248201526e1514905394d1915497d19052531151608a1b6044820152606401610417565b6040518281527f04590a28d5a843588aa29cd0037e47b18e8e1223898c124a04ab7165d68d826f906020015b60405180910390a1505b5050565b80610c955760405162461bcd60e51b815260206004820152601060248201526f0929cac82989288be9a8286be9082a6960831b6044820152606401610417565b60006001600160a01b038316610db657506000805260016020527fa6eef7e35abe7026729641147f7915573c7e97b47efa546f5f6e3230263bcb495480610d1e5760405162461bcd60e51b815260206004820152601a60248201527f4e41544956455f544f4b454e5f4e4f545f535550504f525445440000000000006044820152606401610417565b80341015610d625760405162461bcd60e51b81526020600482015260116024820152701393d517d15393d551d217d05353d55395607a1b6044820152606401610417565b60008281526003602052604090819020805460ff19166001179055517f7563f4dad49ece416ba5a1c3aa9b518a14fb1c33d0668211f098572438da8b5490610c479034908590918252602082015260400190565b506001600160a01b03821660009081526001602052604090205480610e125760405162461bcd60e51b81526020600482015260126024820152711513d2d15397d393d517d050d0d15415115160721b6044820152606401610417565b6000828152600360205260409020805460ff19166001179055610e406001600160a01b03841633308461126d565b60408051828152602081018490526001600160a01b038516917fa5e62a4c3c73567cc7cdc81f1ad1e9844bf5b608bcea4358b1ccdb5ba849b0cc91015b60405180910390a25b505050565b6000546001600160a01b03163314610eb55760405162461bcd60e51b81526004016104179061157a565b6040516370a0823160e01b8152306004820152829082906001600160a01b038316906370a0823190602401602060405180830381865afa158015610efd573d6000803e3d6000fd5b505050506040513d601f19601f82011682018060405250810190610f219190611621565b1015610f635760405162461bcd60e51b81526020600482015260116024820152704e4f545f454e4f5547485f544f4b454e5360781b6044820152606401610417565b610f776001600160a01b038216338461120a565b826001600160a01b03167fa2bd9fcfcdba69f52bcd9a520846ad4bd685b187483f53efc42d035b2ddebff083604051610e7d91815260200190565b6000546001600160a01b03163314610fdc5760405162461bcd60e51b81526004016104179061157a565b600054600160a01b900460ff16156110255760405162461bcd60e51b815260206004820152600c60248201526b414c52454144595f4652454560a01b6044820152606401610417565b6000805460ff60a01b1916600160a01b1790556040517fb8dc3ba232a6b065c85ee4cf0d98a4d397c284671253c45bbac4f01a3de237829061106a9042815260200190565b60405180910390a1565b6000546001600160a01b0316331461109e5760405162461bcd60e51b81526004016104179061157a565b6001600160a01b0381166111035760405162461bcd60e51b815260206004820152602660248201527f4f776e61626c653a206e6577206f776e657220697320746865207a65726f206160448201526564647265737360d01b6064820152608401610417565b61110c816111ba565b50565b6000546001600160a01b031633146111395760405162461bcd60e51b81526004016104179061157a565b600054600160a01b900460ff1661117d5760405162461bcd60e51b81526020600482015260086024820152674e4f545f4652454560c01b6044820152606401610417565b6000805460ff60a01b191690556040514281527f1431bfa80debe7de473a6d866bf601da9fe622b837647a590115d1c12cf7a4e69060200161106a565b600080546001600160a01b038381166001600160a01b0319831681178455604051919092169283917f8be0079c531659141344cd1fd0a4f28419497f9722a3daafe3b4186f6b6457e09190a35050565b6040516001600160a01b038316602482015260448101829052610e8690849063a9059cbb60e01b906064015b60408051601f198184030181529190526020810180516001600160e01b03166001600160e01b0319909316929092179091526112ab565b6040516001600160a01b03808516602483015283166044820152606481018290526112a59085906323b872dd60e01b90608401611236565b50505050565b6000611300826040518060400160405280602081526020017f5361666545524332303a206c6f772d6c6576656c2063616c6c206661696c6564815250856001600160a01b031661137d9092919063ffffffff16565b805190915015610e86578080602001905181019061131e919061163a565b610e865760405162461bcd60e51b815260206004820152602a60248201527f5361666545524332303a204552433230206f7065726174696f6e20646964206e6044820152691bdd081cdd58d8d9595960b21b6064820152608401610417565b606061138c8484600085611396565b90505b9392505050565b6060824710156113f75760405162461bcd60e51b815260206004820152602660248201527f416464726573733a20696e73756666696369656e742062616c616e636520666f6044820152651c8818d85b1b60d21b6064820152608401610417565b6001600160a01b0385163b61144e5760405162461bcd60e51b815260206004820152601d60248201527f416464726573733a2063616c6c20746f206e6f6e2d636f6e74726163740000006044820152606401610417565b600080866001600160a01b0316858760405161146a9190611688565b60006040518083038185875af1925050503d80600081146114a7576040519150601f19603f3d011682016040523d82523d6000602084013e6114ac565b606091505b50915091506114bc8282866114c7565b979650505050505050565b606083156114d657508161138f565b8251156114e65782518084602001fd5b8160405162461bcd60e51b815260040161041791906116a4565b60006020828403121561151257600080fd5b5035919050565b80356001600160a01b038116811461153057600080fd5b919050565b6000806040838503121561154857600080fd5b61155183611519565b946020939093013593505050565b60006020828403121561157157600080fd5b61138f82611519565b6020808252818101527f4f776e61626c653a2063616c6c6572206973206e6f7420746865206f776e6572604082015260600190565b634e487b7160e01b600052603260045260246000fd5b634e487b7160e01b600052601160045260246000fd5b6000828210156115ed576115ed6115c5565b500390565b634e487b7160e01b600052603160045260246000fd5b60006001820161161a5761161a6115c5565b5060010190565b60006020828403121561163357600080fd5b5051919050565b60006020828403121561164c57600080fd5b8151801515811461138f57600080fd5b60005b8381101561167757818101518382015260200161165f565b838111156112a55750506000910152565b6000825161169a81846020870161165c565b9190910192915050565b60208152600082518060208401526116c381604085016020870161165c565b601f01601f1916919091016040019291505056fea2646970667358221220ecc6cca9b4f5b132c3c4532d9d954422be771cb5785f0a2efc176c34b1cab61364736f6c634300080d0033",
    "linkReferences": {}
  }
}